:040000003FEF79F065
:08000800046ED8CF05F0E0CF33
:1000100006F00001E9CF0CF0EACF07F0E1CF08F0DD
:10002000E2CF09F0D9CF0AF0DACF0BF0F3CF12F01C
:10003000F4CF13F0FACF14F0F5CF15F0F6CF16F099
:10004000F7CF17F000C00EF001C00FF002C010F0A3
:1000500003C011F0F2AA30EF00F0F2B4B4EF03F0F5
:100060009DA036EF00F09EB081EF04F09DA23CEF22
:1000700000F09EB29FEF04F0A0A242EF00F0A1B208
:10008000A3EF04F0F2A648EF00F0F2B0FDEF04F0A9
:10009000A0A04EEF00F0A1B08FEF04F0A0A454EFA9
:1000A00000F0A1B459EF05F00EC000F00FC001F050
:1000B00010C002F011C003F00CC0E9FF07C0EAFF56
:1000C000078E08C0E1FF09C0E2FF0AC0D9FF0BC0DC
:1000D000DAFF12C0F3FF13C0F4FF14C0FAFF15C01B
:1000E000F5FF16C0F6FF17C0F7FF045006C0E0FF8B
:1000F00005C0D8FF1000F76A060FF66E010EF72252
:100100000900F5501200280C01064D61696E73203C
:10011000566F6C7461676500444720426174746572
:10012000727920252E3167560000456E67696E652D
:1001300020566F6C74616765000044472046726505
:100140007120252E3167487A0000456E67696E651B
:100150002052504D20256C75000052756E486F7509
:100160007220256C753A2530326C75004447557005
:1001700054696D6520256C753A2530326C75000028
:1001800049646C6554696D6520256C753A2530327B
:100190006C7500004447204F76657220566F6C7472
:1001A00061676500206661756C74206F63637572AA
:1001B00072656400444720556E64657220566F6C0A
:1001C000746167650000206661756C74206F6363FD
:1001D000757272656400456D657267656E6379203E
:1001E00053746F7000002064657465637465640007
:1001F000464C54303100206661756C74206F636327
:10020000757272656400486967682054656D706531
:100210007261747572650000206661756C74206F80
:1002200063637572726564004C6F77204F696C2050
:1002300050726573737572650000206661756C7429
:10024000206F63637572726564004C6F772046752A
:10025000656C0000206661756C74206F6363757255
:1002600072656400456E67696E65204F7665726CD5
:100270006F616400206661756C74206F63637572D2
:10028000726564004447204F76657220537065653F
:100290006400206661756C74206F636375727265AB
:1002A0006400456E67696E65204661696C6564200F
:1002B000000020746F20537461727400456E67698A
:1002C0006E65204661696C65640020746F2053740C
:1002D0006F700000444720556E6465725370656509
:1002E0006400206661756C74206F6363757272655B
:1002F00064005761726E696E673A20425453000081
:100300002062617474657279206C6F7700005761A8
:10031000726E696E673A2044470042617474657278
:10032000792069732048696768005761726E696E49
:10033000673A20444700426174746572792069739A
:10034000204C6F7700005761726E696E673A20002B
:100350004C6F77204675656C0000416C7465726E59
:1003600061746F72204661756C740000204F757463
:10037000707574206661696C00004D61696E73462A
:1003800061696C2E2044656C61790000746F537450
:10039000617274202530326C753A2530326C753AB2
:1003A0002530326C75004572726F7220436F646540
:1003B00020303100466C617368204572726F722084
:1003C000256400004572726F7220436F64652030AF
:1003D000320053657474696E6773204572726F7270
:1003E00000004572726F7220436F646520303300E5
:1003F00052756E487220436F727275707465640036
:10040000456E67696E652052657374696E6700009A
:10041000253032643A25303264206F662025303230
:10042000643A253032640000456E67696E6520735A
:1004300063686564756C656400002020746F2054E7
:1004400075726E204F6666004572726F7220436F40
:100450006465205700005265736574204572726FA1
:1004600072004254532042617420252E31670000EF
:100470004254532042617474657279204C6F770046
:100480004254532042617474657279204F4B0000CE
:10049000425453206E6F7420436F6E6E65637464B4
:1004A00000004D61696E7320766F6C746167650042
:1004B0002020696D62616C616E6365004C6F77200E
:1004C0004F7065726174696E6700566F6C74616716
:1004D000653A5761726E696E67004372616E6B694F
:1004E0006E6720456E67696E650025326C752E2E2D
:1004F0002E0053746F7070696E6720456E67696E69
:10050000650025326C752E2E2E00456E67696E656E
:10051000204275696C642D75700044656C617920AA
:1005200025326C752E2E2E005472697070696E67BC
:10053000000025326C752E2E2E0053617665640006
:10054000596573004E6F2000456E61626C656420D2
:10055000000044697361626C656400004E6F45760B
:10056000656E7420202020202020004447466169C9
:100570006C73546F5374617274004C6F774F696C75
:100580005072657373757265004661756C74204FA7
:1005900031202020202020004869676854656D7054
:1005A000657261747265004C6F77204675656C20CA
:1005B0004C6576656C00416C7465726E6174724650
:1005C00061756C7400456D657267656E637953740F
:1005D0006F7020004447204F766572566F6C7461CF
:1005E000676500444720556E6465725370656564A5
:1005F00020004447204F7665722053706565642063
:10060000004447204661696C73546F53746F7000E7
:100610004447556E646572566F6C7461676500433C
:100620006162696E54656D704869676820004D614C
:10063000696E73204661696C2020202000444720A9
:100640004F6E2020202020202020200042545342A2
:100650006174746572794C6F77200044474261740D
:10066000746572794C6F772020004447426174743E
:100670006572794869676820004D616E75616C200C
:100680004D6F6465202020004572726F72436F6465
:10069000652030312020004572726F72436F6465AF
:1006A0002030322020005363686564756C65644FA8
:1006B0006666202000456E67696E6520526573741A
:1006C000202020004572726F72436F6465203033C2
:1006D0002020004572726F72436F6465205720209E
:1006E000200020202020202020202020202020202A
:1006F000002020202020202020202020202020003A
:100700002020202020202020202020202020002009
:10071000202020202020202020202020200045767E
:10072000656E74206E6F7420636C65617264000086
:10073000253032752F2530327520253032753A2517
:1007400030327520746F0000202053696D636F6E26
:100750007320474331320000436F6E74726F6C6CCC
:10076000657220342E303000D650D7CF03F003010D
:10077000B16FD7CFB2F3F00EB1270A0EB223B2C3D6
:10078000D7FFB1C3D6FFF29400018A530AE0010EED
:1007900001019B27D8B09C2BD8B49D2BD8B49E2B9D
:1007A00000018A530FE0010E01019327D8B0942B6A
:1007B000D8B4952BD8B4962B9A6B996B986B976B92
:1007C0000ED00001010E01019727D8B0982BD8B4A4
:1007D000992BD8B49A2B966B956B946B936B7A5339
:1007E00002E17B5305E07A51D8B47B077A0706D043
:1007F00002010B2D02D095928C9201017C5302E1F3
:100800007D5305E07C51D8B47D077C0706D00201FA
:100810000C2D02D096948D940101885302E18953E6
:1008200004E08851D8B48907880700019B2D02D0C5
:1008300094908B700101765306E1775304E178536D
:1008400002E1795308E0FF0E7627D8A07727D8A0D9
:100850007827D8A079277E5302E17F5305E07E51A7
:10086000D8B47F077E0706D002010D2D02D09298E2
:1008700089980101805302E1815304E08051D8B48A
:1008800081078007825302E1835304E08251D8B488
:1008900083078207845302E1855304E08451D8B46E
:1008A00085078407865302E1875304E08651D8B454
:1008B000870786078A5302E18B5304E08A51D8B434
:1008C0008B078A078C5302E18D5304E08C51D8B416
:1008D0008D078C078E5302E18F5304E08E51D8B4FC
:1008E0008F078E07925301E09207905302E19153D4
:1008F00004E09051D8B491079007F294000154EFAE
:1009000000F09E900101BB5305E1FD0EA96FE80EBA
:10091000A86F01D0BB6B9E90000154EF00F09E9039
:100920000101BB5307E1CF6ACE6A68CFA9F167CF57
:10093000A8F101D0BB6BA190000154EF00F09E9292
:100940009E9254EF00F0A1920101C051070805E208
:10095000C06BBC6B010EAA6F01D0C02BAE2D01D0B5
:1009600002D0AF2D05D0AB51AD5D02E2ADC1ABF110
:10097000C1513F080EE2AE5308E1AF5306E1AD515D
:10098000AB5D02E3AB6B01D0AB2B010EBD6FC16B56
:1009900001D0C12BA192000154EF00F09388000E0A
:1009A00081B8010E0301B26F9388000E81B8010E69
:1009B000B36F938A000E81BA010E006ED890003694
:1009C0000050B327938C000E81BC010E040DF35030
:1009D000B327938E000E81BE010E080DF350B32590
:1009E000B203F3CFB2F39380000E81A0010E100D7D
:1009F000F350B225016E0001120081500101BC2D9F
:100A000001D053D00001CADF01C0B1F30301B151DD
:100A1000050824E196928D720101AD51AB5D02E3B0
:100A2000AB6B01D0AB2B0001B9DF015202E0040037
:100A3000FBD70101AF2D0AD0AF6B036ABA51B00FDB
:100A4000E96E010E0320EA6E010EEF6E010EBC6F1F
:100A5000AA6F040EC06FC16B26D00301B151090803
:100A600023E196928D720101AB5303E1ADC1ABF16D
:100A700001D0AB07000192DF015202E00400FBD776
:100A80000101AF2D0AD0AF6B036ABA51B00FE96E06
:100A9000010E0320EA6E010EEF6E010EBC6FAA6F0D
:100AA000040EC06FC16B03010101F290000154EF0D
:100AB00000F0A194D250800B800806E11C0E9C6EC1
:100AC0000101BE6B06D000019D0E9C6E010E01015E
:100AD000BE6FA194000154EF00F04D61696E735335
:100AE000696E676C655068617365004D61696E730E
:100AF000556E6472766F6C74486768004D61696EFC
:100B000073556E6472766F6C744C6F77004D6169CB
:100B10006E734F766572566F6C74616765004D61D8
:100B2000696E7320496D62616C616E63652000447B
:100B3000472053696E676C652050686173652000BB
:100B4000444720556E646572566F6C74616765200A
:100B5000004447204F766572566F6C74616765205C
:100B60002000444720556E646572537065656420AB
:100B70002020004447204F766572537065656420DD
:100B80002020200053616665204372616E6B696EA0
:100B900067202020004D61696E734661696C446571
:100BA0006C61792020004661696C44656C794578F8
:100BB00074656E646564004372616E6B696E672074
:100BC00054696D65202020004372616E6B20417472
:100BD00074656D7074732020004447204275696C01
:100BE0006455702044656C6179004D61696E735283
:100BF0006573746F7244656C6179004661756C74DD
:100C000020547269702044656C6179004447205219
:100C100065636F6F6C2044656C61792000536F6C65
:100C20006E6F69644F6E546F537461727400444701
:100C30002053746F707065722054696D6520004890
:100C40006F6F746572526573657454696D652000C9
:100C5000436F6E746163746F722044656C617920B8
:100C6000004C6F77204675656C2044656C61792077
:100C70002000444720426174204C6F77204C6576F9
:100C8000656C0044472042617420486967684C6580
:100C900076656C00456E67696E652052504D2F4831
:100CA0005A2020200052756E202D2052657374202A
:100CB0004379636C65005363686564756C65722085
:100CC0002020202020200054696D652D3234487288
:100CD00020436C6F636B200044617465205365741E
:100CE00074696E677320202000466163746F7279A7
:100CF00044656661756C74733F0043616C69627230
:100D00006174696F6E20202020200050617373771A
:100D10006F7264204F7074696F6E73004576656EF4
:100D200074204C6F672020202020202000436C6519
:100D30006172204576656E74204C6F6720004274A6
:100D4000734261744D6F6E69746F72696E670044AF
:100D50006973706C61795363726F6C4C6F636B0075
:100D60000000000000000000000000000000000083
:100D70000000000000000000000000000000000073
:100D8000000043616C69627261746520444742618E
:100D9000743F0043616C696272617465506861738D
:100DA00065733F00446563616C6962726174653F9D
:100DB0002020202000496D62616C20546F6C6572A8
:100DC000616E63652000456469742052756E486FDA
:100DD00075723F2020200000456E61626C2F4469CF
:100DE0007361626C204254530042747320426174F8
:100DF000204C6F774C6576656C0043616C6962725C
:100E00006174652042747342617400427970617349
:100E1000526573744F6E4C6F42617400425453209C
:100E200050617373776420456E61626C0043686142
:100E30006E67654274735061737377643F005365E6
:100E4000630048723A4D696E0000566F6C7473000F
:100E500078313030206D56000C414D46205365747A
:100E600074696E6773000C456E746572205061730F
:100E700073776F7264000C57726F6E6720506173E6
:100E800073776F72640020202020202000000C4C1B
:100E90004C4F50436865636B546F4372616E6B00D7
:100EA0000C4175746F44474F6E54696D654D6178A0
:100EB00020000C4175746F44475265737454696D1A
:100EC000652020000C5363686564756C537461720F
:100ED0007454696D65000C5363686564756C537474
:100EE0006F7054696D650000456E746572204461D1
:100EF0007900456E746572204D6F6E746800456EA2
:100F0000746572205965617200000C4465666175F4
:100F10006C74732073617665642E00000A506C65F2
:100F200061736520726573746172742100000C45F1
:100F30006E61626C652050617373776F72643F00FD
:100F40000C456E7465722050617373776F72640024
:100F50000C50617373776F726420456E61626C65CB
:100F600064000C57726F6E672050617373776F72F5
:100F700064000C50617373777264206469736162FA
:100F80006C6564000C4368616E6765205061737323
:100F9000776F72643F000C456E7465724F6C6450DD
:100FA00061737377726400000C57726F6E67205024
:100FB000617373776F72642100000C456E74657203
:100FC0004E657750617373776F7264000C456E7471
:100FD0006572204F6E636520416761696E000C5039
:100FE000617373776F72647320446F204E6F740067
:100FF0000A2020204D6174636820212100000C50DC
:10100000617373776F7264732055706461746500E7
:101010000A20204661696C656420212100000C5083
:10102000617373776F7264204368616E67656400F3
:101030000A5375636365737366756C6C79000C4C49
:101040006F636B20446973706C61793F20202000CE
:101050000C456E7465722050494E00000C57726F3B
:101060006E672050494E00000C456E746572204436
:101070004742617420566F6C74002A3130206D56DF
:1010800000000C44472042617474657279000A4381
:10109000616C6962726174696F6E204F4B000C4421
:1010A0004720426174746572792043616C69620003
:1010B0000A204572726F722021000C456E746572B1
:1010C0005068617365566F6C746167002A564143BE
:1010D00000000C416C6C20506861736573000A431A
:1010E000616C6962726174696F6E204F4B000C41D4
:1010F0006C6C20506861736573000A204572726FD2
:10110000722021000C446563616C696272617469CC
:101110006F6E00000A20646F6E6521000C52756EC0
:10112000486F757220557064617465000A20646FA1
:101130006E6521000A206661696C656420210000EB
:101140000C456E74657242747350617373776400FA
:101150000C57726F6E672050617373776F72640003
:101160000C425453204D6F6E69746F72696E670044
:101170000C456E746572536574696E67735073774E
:1011800064000C57726F6E672050617373776F72D3
:10119000642100000C43616C6962726174654254A1
:1011A000534261743F000C456E7465722042545383
:1011B000426174566F6C74002A3130206D56000005
:1011C0000C425453204261747465727900000A43E2
:1011D000616C6962726174696F6E204F4B000C42E2
:1011E0005453426174746572792043616C69620082
:1011F0000A204572726F722021000C456E74657270
:10120000427473506173737764000C506173737729
:101210006F726420456E61626C6564000C57726F7A
:101220006E672050617373776F7264000C50617346
:10123000737772642064697361626C6564000C4545
:101240006E7465724F6C64506173737772640000E2
:101250000C57726F6E672050617373776F726421E1
:1012600000000C456E7465724E657750617373773C
:101270006F7264000C456E746572204F6E6365205A
:10128000416761696E000C50617373776F726473AC
:1012900020446F204E6F74000A2020204D6174633B
:1012A0006820212100000C50617373776F726473A2
:1012B00020557064617465000A20204661696C6580
:1012C0006420212100000C50617373776F726420D9
:1012D0004368616E676564000A5375636365737381
:1012E00066756C6C79000C204D616E75616C206DBB
:1012F0006F6465000A20202053656C656374656423
:1013000000000C436F6E74726F6C6C6572206973B1
:1013100020696E000A2052656D6F7465206D6F64E0
:1013200065000C20204175746F206D6F64650000AE
:101330000A20202053656C65637465640000537453
:101340006F7070696E67456E67696E652E2E00005E
:101350004C6F77566F6C74203D20256400005265F9
:10136000736574206661756C7420746F000020636F
:101370006C6F736520436F6E746163746F720000ED
:101380005265736574206661756C740020626566D1
:101390006F7265206372616E6B00456E67696E6582
:1013A00020697320000020616C726561647920728D
:1013B000756E6E696E6700004372616E6B696E6771
:1013C000456E67696E652E2E0000BC0E01014B6FE5
:1013D000740E4A6F130E496F790E486FF40E476F03
:1013E000FD0E466F540E456F7A0E446F3B6B3A6BA1
:1013F000396B7F0E386F436B426B416B406F3F6BB5
:101400003E6B3D6B3C6F2F6B2E6B2D6B2C6F376BD8
:10141000366B356B346F336B326B316B306F040E60
:10142000AD6FAE6BAF6BBA6B02010A6B106B0E6BDC
:101430000F6B0C6B0D6B0B6B136B146B156B176BCE
:10144000126B0D6B166B186B116B196B00018A6BAD
:101450008B6B010EA06F9F6FA56F966BA46BA16B3A
:10146000956B8D6B896F9D6B8E6B8F6B906F9E6B89
:10147000A26BA66BA86BA36B946BA76B996B9A6B13
:101480009B6B976F9C6B0101896B886B7B6B7A6B95
:10149000856B846B816B806B7F6B7E6B926B796BE2
:1014A000786B776B766B836B826B7D6B7C6B876BFA
:1014B000866B8F6B8E6B8B6B8A6B8D6B8C6B916B72
:1014C000906B02011B6B1A6B0001C06BBE6BBD6B96
:1014D000B66BBF6BB46BB36BB86BB56BBB6BBA6BF6
:1014E000B96BBC6BB76BC26BC36BC46BC56BC66BA4
:1014F000CF6BCE6BCA6BC86BC76BC96BCB6BCC6B3E
:10150000CD6BB26BB16BB06BAE6BAF6BAC6BAB6BEF
:10151000AD6B01019A6B996B986B976B966B956BA2
:10152000946B936B9E6B9D6B9C6B9B6BA06B9F6B8B
:10153000A26BA16B1B6B1A6B400E196F840E186F98
:101540002B6B2A6B300E296F390E286F0001ED6B63
:10155000010EEC6FEF6BEE6BE96B080EE86FEB6B57
:10156000EA6B0101176B166B600E156F820E146F1C
:10157000136B126B300E116F820E106F076BA00E83
:10158000066F010E056F090E046F010E0001FF6F5B
:10159000090EFE6F0101036BA00E026F016BAA0E14
:1015A000006F236B226B5C0E216F840E206F0B6B20
:1015B0000A0E0A6F096B086F1F6B1E6B340E1D6FCE
:1015C000840E1C6F0D6B030E0C6F0001FB6BFA6B2E
:1015D000FD6BFC6BF96B0A0EF86F0101276B266B34
:1015E000300E256F390E246F0F6B1E0E0E6F00012B
:1015F000F16B060EF06FF36BF26BF56B160EF46F7A
:10160000F76BF66BE76BE66BE56BE46BE36BE26B3A
:10161000DF6BDE6BD56BD46BD36BD26BD16BD06BC6
:10162000DD6BDC6BD76BD66BD96BD86BE16BE06B8A
:10163000DB6BDA6B0101736B010E726F616B030E72
:10164000606F6F6B6E6B6D6FE80E6C6F6B6B6A6BC0
:10165000270E696F100E686F676B1E0E666F5D6BED
:101660000F0E5C6F656B0A0E646F756B3C0E746FCA
:101670005B6B5A6B596B0A0E586F5F6B5E6F636BD7
:10168000050E626F716B0A0E706FBE6B00014AEF40
:101690000BF09BD69298899895948C9495968C860D
:1016A00095928C9296948D9494908B9095988C981A
:1016B00096928D92C150F00BC16E030E0F01386FE0
:1016C000000E3C6F396F3A6F3B6FC050C00B07097B
:1016D000C06EC08EC280850ED56E370ECD6ECC6AC0
:1016E000780E0609BA6EFF0EBB6EB46A370EB16E85
:1016F0009482666A040E666E656A646A010E636EA1
:10170000E70E4917000E4913D1801C0E9C6EA08075
:10171000F28A9D809D82A082F286FF0E6212C00E28
:10172000F212A084010E616EF19E00019AEF79F031
:10173000C06BBE6BBD6BB66BBF6BB46BB36BB86B82
:10174000B56BBB6BBA6BB96BBC6BB76BC16BCF6B5B
:10175000CE6BCA6BC86BC76BC96BCB6BCC6BCD6BDD
:101760008F6BA86B946BC26BC36BC46BC56BAE6B9A
:10177000AF6BAD6BC66B02011B6B1A6B95988C98A7
:1017800000011200020EEA6EEA0EE96EEF500EE062
:10179000050E016E006A002EFED7012EFBD72E0E1D
:1017A000006E002EFED700D0EF2EF2D712000201FD
:1017B0006A6B6A6B6A511D081EE3036A6A51260F41
:1017C000E96E020E0320EA6E140E6A256D6FF2CFE9
:1017D0006EF2F29EAA6A6DC2A9FFA69CA69EA68082
:1017E000A8506EBFF28EEF6E010EEA6F0001CADFE5
:1017F00002016A2BDFD7000160EF31F00201D56BE7
:10180000D551010824E3020ED96FD60ED86FD551F9
:10181000D825016E000ED921036E0150E96E03C078
:10182000EAFFD551D325DA6F000ED421DB6FF2CF5A
:10183000DCF2F29EDBC2AAFFDAC2A9FFA69CA69E3A
:10184000A680A850DCBFF28EEF6ED52BD9D7D6C2BA
:1018500001F0D7C202F0000138EF0CF0D0C2D2F292
:10186000CFC2D1F2CEC2D4F2CDC2D3F20001C6D7DC
:10187000D2C2EAFFD1C2E9FF02C0ECFFED5201C0C3
:10188000EFFF1200F29CF29EF2BEFDD712000201A1
:10189000D36BD351010830E3D351CF25D46F000E61
:1018A000D021D56F020ED76FD10ED66FD351D6256A
:1018B000016E000ED721036E0150E96E03C0EAFFEE
:1018C000EFCFD6F2F250006EF29ED5C2AAFFD4C27C
:1018D000A9FFD6C2A8FFA69CA69EA6840F01550EFE
:1018E000A76EAA0EA76EA682A6B2FED7A694005037
:1018F000F2120201D32BCDD7000190EF0CF0C00EF5
:10190000F2121200BFDF0101BE530BE1CCC2D0F2D4
:10191000CBC2CFF2CEC2D2F2CDC2D1F20001B7D744
:1019200001010001ECDF1200DCC200F0DDC201F0B9
:10193000026A036A00500201D825E06F0150D921E4
:10194000E16F0250DA21E26F0350DB21E36F030EF7
:10195000E017E16BE26BE36BE05306E1E15304E176
:10196000E25302E1E35301E02BD0DFC203F0DEC219
:10197000E9FF03C0EAFFDCC200F0DDC201F0026A49
:10198000036A0050D825E26F0150D921E36F02505D
:10199000DA21E46F0350DB21F2CFE6F2F29EE4C2DB
:1019A000F8FFE3C2F7FFE2C2F6FF0900F5500800B6
:1019B000F5CF03F0F86AE6BFF28EEF6E03C0ECFFDE
:1019C00000011200A1C300F0A2C301F0026A036A81
:1019D000005003019D25A96F01509E21AA6F02505E
:1019E0009F21AB6F0350A021AC6F030EA917AA6B08
:1019F000AB6BAC6BA95306E1AA5304E1AB5302E114
:101A0000AC5301E063D0A1C300F0A2C301F0026AAD
:101A1000036A00509D25A96F01509E21AA6F0250B4
:101A20009F21AB6F0350A021AC6F020EA927000EBF
:101A3000AA23AB23AC23F2CFADF3F29EABC3F8FFE6
:101A4000AAC3F7FFA9C3F6FF0900F5500800F5CFB8
:101A500003F0F86AADBFF28EA56F03C0A6F3A1C371
:101A600000F0A2C301F0026A036A00509D25A96F2D
:101A700001509E21AA6F02509F21AB6F0350A021FD
:101A8000F2CFADF3F29EABC3F8FFAAC3F7FFA9C331
:101A9000F6FF0900F5500800F5CF03F0F86AADBF76
:101AA000F28EA76F03C0A8F3A4C303F0A3C3E9FF9A
:101AB00003C0EAFFEE52A5C3ECFFA6C3ECFFED5254
:101AC000ED52ED52A7C3EFFFA8C3ECFF00011200D7
:101AD000C00EF6163F0E006E08000D00002EFCD75B
:101AE00008000C001200F250036EF29EA68EA6842F
:101AF0000F01550EA76EAA0EA76EA6820000035016
:101B0000F212000112000301A351030B006E036ADD
:101B10000050031001E061D0A5C3ABF3A6C3ACF342
:101B2000036AA7C3A9F3A8C3AAF3036A0001AADE44
:101B30000101BE534FE10301A3519F25AD6FA45195
:101B4000A021AE6F000EA121AF6F000EA221B06FD9
:101B5000020EAD27000EAE23AF23B023D08CAFC34F
:101B6000F8FFAEC3F7FFADC3F6FF0001B1DFADC3B1
:101B7000F6FFA9C3F5FF0D00AAC3F5FF0C00A69C54
:101B8000A688B1DFB0DFF86AF86A0301A3519F2588
:101B9000AD6FA451A021AE6F000EA121AF6F000E5A
:101BA000A221B06FD08CAFC3F8FFAEC3F7FFADC3B7
:101BB000F6FF00018DDFADC3F6FFABC3F5FF0D00EF
:101BC000ACC3F5FF0C00A69CA6888DDF8CDFF86AFD
:101BD000F86A0101000193DE030100011200030114
:101BE000566B556B565330E155512D082DE3553545
:101BF000576F5635586F57375837FC0E57175535AE
:101C0000026E5635036E02360336FC0E0216025083
:101C10009D0F016E020E032201C059F303C05AF357
:101C2000A06B9F6BFE0E9E6F9D6B58C3A2F357C3B4
:101C3000A1F303C0A4F301C0A3F30001C3DE0301B9
:101C4000552BD8B4562BCED70201A06B9F6BAA0E92
:101C50009E6F9D6FA46BA36BA26BA16BA86BA76B10
:101C6000A66B080EA56FAC6BAB6BAA6BA96BB06BC8
:101C7000AF6BAE6B010EAD6FB46BB36BB26BB16B90
:101C8000B86BB76BB66BB56BBC6BBB6BBA6BAA0EA4
:101C9000B96FC06BBF6BBE6BA00EBD6FC46BC36B67
:101CA000010EC26F040EC16FC86BC76BC66BC56BEC
:101CB000CC6BCB6BCA6B0A0EC96FD06BCF6BCE6B84
:101CC000010ECD6FD46BD36BD26BB40ED16FD86BCA
:101CD000D76B010ED66F040ED56FDC6BDB6BDA6B46
:101CE0002D0ED96FE06BDF6BDE6B370EDD6FE46BB3
:101CF000E36BE26BE16BE86BE76BE66B0A0EE56F9B
:101D0000EC6BEB6BEA6BE96BF06BEF6BEE6BED6B17
:101D1000F46BF36BF26B030EF16FF86BF76BF66B12
:101D2000F56FFC6BFB6BFA6B0A0EF96F0301006B2E
:101D30000201FF6BFE6B1E0EFD6F0301046B036B54
:101D4000026B0A0E016F086B076B066B0F0E056FB7
:101D50000C6B0B6B0A6B096B106B0F6B0E6B0D6FC3
:101D6000146B136B126B0A0E116F186B176B166BDB
:101D70006E0E156F1C6B1B6B1A6B960E196F206B1A
:101D80001F6B1E6B1E0E1D6F246B236B226B216B52
:101D9000286B276B266B060E256F2C6B2B6B2A6B23
:101DA000296B306B2F6B2E6B160E2D6F346B336BD4
:101DB000326B316B386B376B366B356B3C6B3B6B17
:101DC0003A6B396B406B3F6B010E3E6FE00E3D6F1F
:101DD000446B436B426B416B486B476B466B3C0EED
:101DE000456F4C6B4B6B4A6B010E496F506B4F6BE1
:101DF0004E6B4D6B566B556B565331E155512D085B
:101E00002EE35535576F5635586F57375837FC0EF8
:101E100057175535026E5635036E02360336FC0EE3
:101E2000021602509D0FE96E020E0320EA6EEFCFFC
:101E3000A5F3ECCFA6F3ECCFA7F3ECCFA8F3A26BFE
:101E4000A16BFE0EA06F9F6B58C3A4F357C3A3F3FF
:101E5000000159DE0301552BD8B4562BCDD7000114
:101E600012000301A26BA16BFE0EA06F9F6BA46B0F
:101E7000E40EA36FA86BA76BA66BE70EA56F00011E
:101E800042DE0301A26BA16BFE0EA06F9F6BA46BE1
:101E9000E80EA36FA86BA76B040EA66FC80EA56F04
:101EA000000131DE0301A26BA16BFE0EA06F9F6BE0
:101EB000A46BEC0EA36FA86BA76BA66B010EA56FAE
:101EC000000121DE0301A26BA16BFE0EA06F9F6BD0
:101ED000A46BF00EA36FA86BA76BA66BE90EA56FA2
:101EE000000111DE0301A26BA16BFE0EA06F9F6BC0
:101EF000A46BF40EA36FA86BA76BA66BE90EA56F7E
:101F0000000101DE0301A26BA16BFE0EA06F9F6BAF
:101F1000A46BF80EA36FA86BA76BA66BE90EA56F59
:101F20000001F1DD0301A26BA16BFE0EA06F9F6BA0
:101F3000A46BFC0EA36FA86BA76BA66BE90EA56F35
:101F40000001E1DD0301A26BA16BFE0EA06F9F6B90
:101F5000010EA46FA36BA86BA76BA66BE20EA56F17
:101F60000001D1DD0301A26BA16BFE0EA06F9F6B80
:101F7000010EA46F040EA36FA86BA76BA66BE90EEE
:101F8000A56F0001C0DD0301A26BA16BFE0EA06F67
:101F90009F6B010EA46F080EA36FA86BA76BA66BB7
:101FA000E90EA56F0001AFDD0301A26BA16BFE0E70
:101FB000A06F9F6B010EA46F0C0EA36FA86BA76B95
:101FC000A66B010EA56F00019EDD0301A26BA16B44
:101FD000FE0EA06F9F6B010EA46F140EA36FA86B73
:101FE000A76B120EA66F700EA56F00018CDD0301AA
:101FF000A26BA16BFE0EA06F9F6B010EA46F100E63
:10200000A36FA86BA76B010EA66FAD0EA56F0001A5
:102010007ADD0301A26BA16BFE0EA06F9F6B010E18
:10202000A46F180EA36FA86BA76BA66B010EA56F0C
:10203000000169DD0301A26BA16BFE0EA06F9F6B17
:10204000010EA46F1C0EA36FA86BA76BA66B020EEC
:10205000A56F000158DD12000301026B036B010E36
:10206000046FDA6AD96A020E076FFA0E066F020E63
:10207000EA6EFE0EE96E07C3E2FF06C3E1FF04C38A
:1020800005F3D890E550EE02F3500223F4500323F9
:10209000052FF7D702C3DEFF03C302F3036BD8B0EB
:1020A000032B062BD8B4072B042B04510508DFE1C2
:1020B000000112008E0E006ED2C201F0D1C202F0F9
:1020C000036A015209E102C001F0026A080E005ED3
:1020D000015202E1006A08D0D89001BE04D0023655
:1020E00001360006F9D7019E12000201D151D8B481
:1020F000A5D0DD6FD551D8B4A1D0DD5F05E37F0E4B
:10210000DD27D8B09BD006D0810EDD5FD8A096D059
:10211000D8B494D0DDC200F0016A026A036ADC6BB5
:10212000D2C2DBF2DB8FD3C2DAF2D4C2D9F2190EFB
:10213000DD6FD851D95F0DE2010EDA5F0AE2DB5F95
:1021400008E2DC5F06E2DC2BDB2BDA2BD851D92747
:1021500028D0D751DA5F12E2010EDB5F0FE2DC5FBD
:102160000DE2DC2BDB2BD751DA27D851D92719E325
:10217000DA2B17E1DB2B15E1DC2B13D0D6518009CC
:10218000DB5F0EE2010EDC5F0BE2DC2BD651800937
:10219000DB27D751DA27E9E3DB2BE7E1DC2BE5D7B7
:1021A0000380DD2F01D00BD0D890D937DA37DB3759
:1021B000DC37D890033602360136DE37BAD7DEA1D7
:1021C00006D0D890013202320332DE3302D000064C
:1021D00035E0DEBF1ED0D890D937DA37DB37DC37B1
:1021E000D851D95F07E2010EDA5F04E2DB5F02E259
:1021F000DC5F1AE3D751DA5F05E2010EDB5F02E232
:10220000DC5F12E3D6518009DB5F03E2010EDC5F85
:102210000BE3032A09E1022A07E1012A05E1002A6A
:102220000DE0013202320332D2C2DDF2D651DD1BA3
:10223000DDAF02D0018E06D0019E04D0006A016A93
:10224000026A036A000112000201DB51DD03F3CFD1
:1022500001F0F4CF00F0DE03F3500026DC51DD0383
:10226000F3500020026E000112000201CE6B040E3A
:10227000CD6F010ED06F9F0ECF6F00012EEC0CF0D2
:102280000101A051260807E2FF0A03E19F510F0850
:1022900002E2A06B9F6B0201CE6B060ECD6F010EAA
:1022A000D06FA10ECF6F00012EEC0CF00101A253F4
:1022B00003E1A1513B0802E2A26BA16B9FC100F0B8
:1022C000A0C101F0026A036A03C0D0F202C0CFF2DB
:1022D00001C0CEF200C0CDF20201FD6BFC6B0E0E10
:1022E000FB6F100EFA6F03C001F302C000F301C0D0
:1022F000FFF200C0FEF20001AFDE03C0D0F202C068
:10230000CFF201C0CEF200C0CDF2A1C100F0A2C157
:1023100001F0026A036A03C0D4F202C0D3F201C022
:10232000D2F200C0D1F20201FD6BFC6BFB6B3C0EE4
:10233000FA6F03C001F302C000F301C0FFF200C056
:10234000FEF2000189DE00500201CD2501019B6FE4
:1023500001500201CE2101019C6F02500201CF21E8
:1023600001019D6F03500201D02101019E6F020106
:10237000CE6B080ECD6F020ED06FCB0ECF6F00016B
:102380002EEC0CF00201CB5307E1CC5305E1000128
:10239000976B036A975103D0010E0001976F97C0A6
:1023A00098F00201DB6BDA6BFE0ED96FD86BDD6B38
:1023B000040EDC6FDF6BDE0EDE6F000194EC0CF0C0
:1023C0000201DB6BDA6BFE0ED96FD86BDD6B080E8A
:1023D000DC6FDF6BE80EDE6F000194EC0CF00201A5
:1023E000DB6BDA6BFE0ED96FD86BDD6B0C0EDC6F1E
:1023F000DF6BEA0EDE6F000194EC0CF00201DB6B88
:10240000DA6BFE0ED96FD86BDD6B100EDC6FDF6BF5
:10241000EC0EDE6F000194EC0CF00201DB6BDA6B6A
:10242000FE0ED96FD86BDD6B140EDC6FDF6BEE0E1A
:10243000DE6F000194EC0CF00201D06BCF6BEDC0AD
:10244000FBF2ECC0FAF2D0C2FDF2CFC2FCF2030103
:10245000016B006B0E0E0201FF6F100EFE6F00018C
:10246000FBDD03C0D0F202C0CFF201C0CEF200C04B
:10247000CDF20201D46BD36BEFC0FBF2EEC0FAF2E7
:10248000D4C2FDF2D3C2FCF20301016B006B020166
:10249000FF6B3C0EFE6F0001DFDD00500201CD2519
:1024A00001016C6F01500201CE2101016D6F0250DC
:1024B0000201CF2101016E6F03500201D021010101
:1024C0006F6F0201D06BCF6BE9C0FBF2E8C0FAF28C
:1024D000D0C2FDF2CFC2FCF20301016B006B0E0E05
:1024E0000201FF6F100EFE6F0001B6DD03C0D0F2D7
:1024F00002C0CFF201C0CEF200C0CDF20201D46B17
:10250000D36BEBC0FBF2EAC0FAF2D4C2FDF2D3C245
:10251000FCF20301016B006B0201FF6B3C0EFE6FCE
:1025200000019ADD00500201CD250101686F0150C4
:102530000201CE210101696F02500201CF21010188
:102540006A6F03500201D02101016B6F0201DB6B46
:10255000DA6BFE0ED96FD86BDD6B180EDC6FDF6B9C
:10256000D00EDE6F000194EC0CF00201DB6BDA6B35
:10257000FE0ED96FD86BDD6B1C0EDC6F010EDF6FAA
:10258000DE6B000194EC0CF00201DB6BDA6BFE0EEB
:10259000D96FD86BDD6B200EDC6F010EDF6F020E82
:1025A000DE6F000194EC0CF00201DB6BDA6BFE0EC7
:1025B000D96FD86BDD6B240EDC6FDF6BFE0EDE6F28
:1025C000000194EC0CF00201DB6BDA6BFE0ED96FAC
:1025D000D86BDD6B280EDC6FDF6BD20EDE6F000177
:1025E00094EC0CF00201DB6BDA6BFE0ED96FD86B4A
:1025F000DD6B2C0EDC6F010EDF6F080EDE6F00014D
:1026000094EC0CF00201DB6BDA6BFE0ED96FD86B29
:10261000DD6B300EDC6FDF6BD40EDE6F000194ECEF
:102620000CF00201DB6BDA6BFE0ED96FD86BDD6B41
:10263000340EDC6F010EDF6F060EDE6F000194ECCE
:102640000CF00201DB6BDA6BFE0ED96FD86BDD6B21
:10265000380EDC6F010EDF6F040EDE6F000194ECAC
:102660000CF00201DB6BDA6BFE0ED96FD86BDD6B01
:102670003C0EDC6F020EDF6FCB0EDE6F000194ECC0
:102680000CF0CCC2D2F2CBC2D1F214DD03C01FF1E8
:1026900002C01EF101C01DF100C01CF10201DB6B84
:1026A000DA6BFE0ED96FD86BDD6B400EDC6F020E5D
:1026B000DF6FCB0EDE6F000194EC0CF0CCC2D2F2D7
:1026C000CBC2D1F2F7DC03C023F102C022F101C07A
:1026D00021F100C020F10201DB6BDA6BFE0ED96F35
:1026E000D86BDD6B440EDC6FDF6BD60EDE6F000146
:1026F00094EC0CF00201DB6BDA6BFE0ED96FD86B39
:10270000DD6B480EDC6FDF6BF80EDE6F000194ECC2
:102710000CF00201DB6BDA6BFE0ED96FD86BDD6B50
:102720004C0EDC6FDF6BFA0EDE6F000194EC0CF0E8
:102730000201DB6BDA6BFE0ED96FD86BDD6B500ECE
:10274000DC6FDF6BFC0EDE6F000194EC0CF002011D
:10275000D06BCF6BFBC0FBF2FAC0FAF2D0C2FDF235
:10276000CFC2FCF20301016B006B0E0E0201FF6F82
:10277000100EFE6F000170DC03C0D0F202C0CFF279
:1027800001C0CEF200C0CDF20201D46BD36BFDC00C
:10279000FBF2FCC0FAF2D4C2FDF2D3C2FCF2030198
:1027A000016B006B0201FF6B3C0EFE6F000154DCFD
:1027B00000500201CD270150CE230250CF230350F9
:1027C000D023F8C000F0F9C001F0026A036A00509B
:1027D000CD250101586F01500201CE210101596F31
:1027E00002500201CF2101015A6F03500201D02192
:1027F00001015B6F0201DB6BDA6BFE0ED96FD86BE8
:10280000DD6B540EDC6F010EDF6F600EDE6F0001BA
:1028100094EC0CF00201DB6BDA6BFE0ED96FD86B17
:10282000DD6B580EDC6F010EDF6F0C0EDE6F0001EA
:1028300094EC0CF00201DB6BDA6BFE0ED96FD86BF7
:10284000DD6B5C0EDC6F010EDF6F5C0EDE6F000176
:1028500094EC0CF00201DB6BDA6BFE0ED96FD86BD7
:10286000DD6B600EDC6F010EDF6F660EDE6F000148
:1028700094EC0CF00201DB6BDA6BFE0ED96FD86BB7
:10288000DD6B640EDC6F010EDF6F700EDE6F00011A
:1028900094EC0CF00201DB6BDA6BFE0ED96FD86B97
:1028A000DD6B680EDC6F010EDF6F5E0EDE6F000108
:1028B00094EC0CF00201DB6BDA6BFE0ED96FD86B77
:1028C000DD6B6C0EDC6FDF6BDC0EDE6F000194ECF9
:1028D0000CF00201DB6BDA6BFE0ED96FD86BDD6B8F
:1028E000700EDC6F010EDF6F620EDE6F000194EC84
:1028F0000CF00201DB6BDA6BFE0ED96FD86BDD6B6F
:10290000740EDC6F010EDF6F640EDE6F000194EC5D
:102910000CF00201DB6BDA6BFE0ED96FD86BDD6B4E
:10292000780EDC6F020EDF6FCB0EDE6F000194ECD1
:102930000CF0CCC2D2F2CBC2D1F25AEC10F003C0F0
:10294000D0F202C0CFF201C0CEF200C0CDF203C07F
:10295000D4F202C0D3F201C0D2F200C0D1F202011F
:10296000D86BD76B200ED66F820ED56F000175EC39
:1029700010F003C013F102C012F101C011F100C048
:1029800010F10201DB6BDA6BFE0ED96FD86BDD6BD9
:102990007C0EDC6F020EDF6FCB0EDE6F000194EC5D
:1029A0000CF0CCC2D2F2CBC2D1F25AEC10F003C080
:1029B000D0F202C0CFF201C0CEF200C0CDF203C00F
:1029C000D4F202C0D3F201C0D2F200C0D1F20201AF
:1029D000D86BD76B200ED66F820ED56F000175ECC9
:1029E00010F003C017F102C016F101C015F100C0CC
:1029F00014F10201DB6BDA6BFE0ED96FD86BDD6B65
:102A0000800EDC6F010EDF6F0E0EDE6F000194ECA6
:102A10000CF00201DB6BDA6BFE0ED96FD86BDD6B4D
:102A2000840EDC6FDF6BDA0EDE6F000194EC0CF0CD
:102A30000201DB6BDA6BFE0ED96FD86BDD6B880E93
:102A4000DC6FDF6BF00EDE6F000194EC0CF0020126
:102A5000DB6BDA6BFE0ED96FD86BDD6B8C0EDC6F27
:102A6000DF6BF20EDE6F000194EC0CF00201DB6B09
:102A7000DA6BFE0ED96FD86BDD6B900EDC6FDF6BFF
:102A8000F40EDE6F000194EC0CF00201DB6BDA6BEC
:102A9000FE0ED96FD86BDD6B940EDC6FDF6BF60E1C
:102AA000DE6F000194EC0CF0F1C0DCF2F0C0DBF260
:102AB0000201DE6B3C0EDD6F000124EC11F0F251DF
:102AC000020101240101A36F0001F3510201022060
:102AD0000101A46FF5C0DCF2F4C0DBF20201DE6B91
:102AE0003C0EDD6F000124EC11F0F65102010124CF
:102AF0000101A56F0001F751020102200101A66F3B
:102B00000201DB6BDA6BFE0ED96FD86BDD6B9C0EAE
:102B1000DC6FDF6BE40EDE6F000194EC0CF0020161
:102B2000DB6BDA6BFE0ED96FD86BDD6BA00EDC6F42
:102B3000020EDF6FCB0EDE6F000194EC0CF0CCC206
:102B4000D2F2CBC2D1F25AEC10F003C0D0F202C0E4
:102B5000CFF201C0CEF200C0CDF203C0D4F202C069
:102B6000D3F201C0D2F200C0D1F20201D86BD76B10
:102B7000200ED66F820ED56F000175EC10F003C0E9
:102B80001BF102C01AF101C019F100C018F10201D5
:102B9000DB6BDA6BFE0ED96FD86BDD6BA40EDC6FCE
:102BA000DF6BE60EDE6F000194EC0CF00201DB6BD4
:102BB000DA6BFE0ED96FD86BDD6BA80EDC6F010EE1
:102BC000DF6F740EDE6F000194EC0CF00201DB6B22
:102BD000DA6BFE0ED96FD86BDD6BAC0EDC6F010EBD
:102BE000DF6F720EDE6F000194EC0CF00201DB6B04
:102BF000DA6BFE0ED96FD86BDD6BB00EDC6FDF6B5E
:102C0000E00EDE6F000194EC0CF00301A06B9F6BF3
:102C1000FE0E9E6F9D6BA26BB40EA16F010EA46F92
:102C2000240EA36F0001E2EC0CF00301A06B9F6B7C
:102C3000FE0E9E6F9D6BA26BB80EA16F010EA46F6E
:102C4000280EA36F0001E2EC0CF00201DB6BDA6BE3
:102C5000FE0ED96FD86BDD6BE80EDC6FDF6B590EA3
:102C6000DE6F000194EC0CF00201DB6BDA6BFE0E00
:102C7000D96FD86BDD6BE40EDC6FDF6B710EDE6F2E
:102C8000000194EC0CF05AC0D2F259C0D1F25AECC7
:102C900010F003C0D0F202C0CFF201C0CEF200C0EB
:102CA000CDF272C0D2F271C0D1F25AEC10F0D0C2A3
:102CB000D4F2CFC2D3F2CEC2D2F2CDC2D1F203C08F
:102CC000D8F202C0D7F201C0D6F200C0D5F275EC3E
:102CD00010F003C0D0F202C0CFF201C0CEF200C0AB
:102CE000CDF203C0D4F202C0D3F201C0D2F200C0D0
:102CF000D1F20201D86BD76B480ED66F850ED56F17
:102D0000000175EC10F003C047F102C046F101C0AC
:102D100045F100C044F10201DB6BDA6BFE0ED96FA6
:102D2000D86BDD6BEC0EDC6FDF6B830EDE6F0001AA
:102D300094EC0CF00201DB6BDA6BFE0ED96FD86BF2
:102D4000DD6BF00EDC6FDF6B690EDE6F000194EC63
:102D50000CF00201DB6BDA6BFE0ED96FD86BDD6B0A
:102D6000F40EDC6FDF6B730EDE6F000194EC0CF081
:102D70000201DB6BDA6BFE0ED96FD86BDD6BF80EE0
:102D8000DC6FDF6B750EDE6F000194EC0CF002015E
:102D9000DB6BDA6BFE0ED96FD86BDD6BFC0EDC6F74
:102DA000DF6B770EDE6F000194EC0CF00201DB6B41
:102DB000DA6BFE0ED96FD86B010EDD6FDC6BDF6B4B
:102DC000790EDE6F000194EC0CF00201DB6BDA6B24
:102DD000FE0ED96FD86B010EDD6F040EDC6FDF6B5A
:102DE0007B0EDE6F000194EC0CF00201DB6BDA6B02
:102DF000FE0ED96FD86B010EDD6F080EDC6FDF6B36
:102E00007D0EDE6F000194EC0CF06AC0D2F269C056
:102E1000D1F25AEC10F003C0D0F202C0CFF201C0E0
:102E2000CEF200C0CDF274C0D2F273C0D1F25AEC2F
:102E300010F0D0C2D4F2CFC2D3F2CEC2D2F2CDC201
:102E4000D1F203C0D8F202C0D7F201C0D6F200C05E
:102E5000D5F275EC10F003C03BF102C03AF101C0AD
:102E600039F100C038F16AC0D2F269C0D1F25AEC2F
:102E700010F003C0D0F202C0CFF201C0CEF200C009
:102E8000CDF276C0D2F275C0D1F25AEC10F0D0C2B9
:102E9000D4F2CFC2D3F2CEC2D2F2CDC2D1F203C0AD
:102EA000D8F202C0D7F201C0D6F200C0D5F275EC5C
:102EB00010F003C03FF102C03EF101C03DF100C07F
:102EC0003CF16AC0D2F269C0D1F25AEC10F003C0F2
:102ED000D0F202C0CFF201C0CEF200C0CDF278C075
:102EE000D2F277C0D1F25AEC10F0D0C2D4F2CFC2F5
:102EF000D3F2CEC2D2F2CDC2D1F203C0D8F202C018
:102F0000D7F201C0D6F200C0D5F275EC10F003C0C4
:102F100043F102C042F101C041F100C040F16AC07A
:102F2000D2F269C0D1F25AEC10F003C0D0F202C064
:102F3000CFF201C0CEF200C0CDF27AC0D2F279C099
:102F4000D1F25AEC10F0D0C2D4F2CFC2D3F2CEC23A
:102F5000D2F2CDC2D1F203C0D8F202C0D7F201C082
:102F6000D6F200C0D5F275EC10F003C02FF102C00C
:102F70002EF101C02DF100C02CF16AC0D2F269C05F
:102F8000D1F25AEC10F003C0D0F202C0CFF201C06F
:102F9000CEF200C0CDF27EC0D2F27DC0D1F25AECAA
:102FA00010F0D0C2D4F2CFC2D3F2CEC2D2F2CDC290
:102FB000D1F203C0D8F202C0D7F201C0D6F200C0ED
:102FC000D5F275EC10F003C037F102C036F101C044
:102FD00035F100C034F16AC0D2F269C0D1F25AECC6
:102FE00010F003C0D0F202C0CFF201C0CEF200C098
:102FF000CDF27CC0D2F27BC0D1F25AEC10F0D0C23C
:10300000D4F2CFC2D3F2CEC2D2F2CDC2D1F203C03B
:10301000D8F202C0D7F201C0D6F200C0D5F275ECEA
:1030200010F003C033F102C032F101C031F100C031
:1030300030F10201DB6BDA6BFE0ED96FD86B010E3B
:10304000DD6F0C0EDC6FDF6B850EDE6F000194EC24
:103050000CF00201DB6BDA6BFE0ED96FD86B010E40
:10306000DD6F140EDC6FDF6B670EDE6F000194EC1A
:103070000CF00201DB6BDA6BFE0ED96FD86B010E20
:10308000DD6F100EDC6FDF6B7F0EDE6F000194ECE6
:103090000CF068C0D2F267C0D1F25AEC10F003C055
:1030A000D0F202C0CFF201C0CEF200C0CDF280C09B
:1030B000D2F27FC0D1F25AEC10F0D0C2D4F2CFC21B
:1030C000D3F2CEC2D2F2CDC2D1F203C0D8F202C046
:1030D000D7F201C0D6F200C0D5F275EC10F003C0F3
:1030E000D0F202C0CFF201C0CEF200C0CDF203C0D8
:1030F000D4F202C0D3F201C0D2F200C0D1F2020178
:10310000D86BD76B480ED66F850ED56F000175EC66
:1031100010F003C04BF102C04AF101C049F100C0F8
:1031200048F10201DB6BDA6BFE0ED96FD86B010E32
:10313000DD6F180EDC6FDF6B870EDE6F000194EC25
:103140000CF00201DB6BDA6BFE0ED96FD86B010E4F
:10315000DD6F1C0EDC6F010EDF6F0A0EDE6F0001EB
:1031600094EC0CF00201DB6BDA6BFE0ED96FD86BBE
:10317000010EDD6F200EDC6FDF6BE20EDE6F0001F3
:1031800094EC0CF012009AC3A1F303019E51A11B11
:10319000A1AF05D0D894D8909ABFD8802FD09AC329
:1031A000A1F39DC3A2F39951A25F06E0A1AF26D07F
:1031B000D850010AD86E22D09EC3A2F39A51A25FC2
:1031C00006E0A1AF1BD0D850010AD86E17D09FC31C
:1031D000A2F39B51A25F06E0A1AF10D0D850010A24
:1031E000D86E0CD0A0C3A2F39C51A25F06E0A1AFA1
:1031F00005D0D850010AD86E01D0D8900001120035
:1032000002016A6B6B6B6C6B6D6B6E6B6F6B706BD3
:10321000716B726B736B746B756B766B776B786BB2
:10322000796B7A6B7B6B7C6B7D6B7E6B7F6B806B62
:10323000816B826B836B846B856B866B876B886B12
:10324000896B8A6B8B6B8C6B8D6B8E6B8F6B906BC2
:10325000916B926B936B946B956B966B976B986B72
:10326000996B9A6B9B6B9C6B9D6B9E6B9F6BA06B22
:10327000A16BA26BA36BA46BA56BA66BA76BA86BD2
:10328000A96BAA6BAB6BAC6BAD6BAE6BAF6BB06B82
:10329000B16BB26BB36BB46BB56BB66BB76BB86B32
:1032A000B96BBA6BBB6BBC6BBD6BBE6BBF6BC06BE2
:1032B000C16BC26BC36BC46BC56BC66BC76BC86B92
:1032C000C96BCA6BCB6BCC6BCD6BCE6BCF6BD06B42
:1032D000D16BD26BD36BD46BD56BD66BD76BD86BF2
:1032E000D96BDA6BDB6BDC6BDD6BDE6BDF6BE06BA2
:1032F000E16BE26BE36BE46BE56BE66BE76BE86B52
:10330000E96BEA6BEB6BEC6BED6BEE6BEF6BF06B01
:10331000F16BF26BF36BF46BF56BF66BF76BF86BB1
:10332000F96BFA6BFB6BFC6BFD6BFE6BFF6B0301C8
:10333000006B016B026B036B046B056B066B076B19
:10334000086B096B0A6B0B6B0C6B0D6B0E6B0F6BC9
:10335000106B116B126B136B146B156B166B176B79
:10336000186B196B1A6B1B6B1C6B1D6B1E6B1F6B29
:10337000206B216B226B236B246B256B266B276BD9
:10338000286B296B2A6B2B6B2C6B2D6B2E6B2F6B89
:10339000306B316B326B336B346B356B366B376B39
:1033A000386B396B3A6B3B6B3C6B3D6B3E6B3F6BE9
:1033B000406B416B426B436B446B456B466B476B99
:1033C000486B496B4A6B4B6B4C6B4D6B4E6B4F6B49
:1033D000506B516B526B536B546B556B566B576BF9
:1033E000586B596B5A6B5B6B5C6B5D6B5E6B5F6BA9
:1033F000606B616B626B636B646B656B666B676B59
:10340000686B696B6A6B6B6B6C6B6D6B6E6B6F6B08
:10341000706B716B726B736B746B756B766B776BB8
:10342000786B796B7A6B7B6B7C6B7D6B7E6B7F6B68
:10343000806B816B826B836B846B856B866B876B18
:10344000886B896B8A6B8B6B8C6B8D6B8E6B8F6BC8
:10345000906B916B926B936B946B956B986B976B76
:10346000966B975331E196514A082EE39635996F42
:1034700097359A6F99379A37FC0E99179635026EE1
:103480009735036E02360336FC0E021602506A0FA1
:10349000016E020E032201C09BF303C09CF3A06BDC
:1034A0009F6BFE0E9E6F9D6B9AC3A2F399C3A1F30F
:1034B00003C0A4F301C0A3F30001E2EC0CF003018C
:1034C000962BD8B4972BCDD702016A51AA0807E1F1
:1034D0006B51AA0804E16C5302E16D530BE06D6B74
:1034E0006C6BAA0E6B6F6A6F010E0301986F00017F
:1034F000C66F02016E2D06D06F5304E1705302E1D6
:10350000715313E06E5306E16F5304E1705302E10F
:1035100071530BE0716B706B6F6B6E6B010E03017F
:10352000986F020E0001C66F0201755310E17453CB
:103530000EE173530CE17251170809E3795307E167
:10354000785305E1775303E176513B0810E2756B40
:10355000746B736B080E726F796B786B776B766B2D
:10356000010E0301986F030E0001C66F02017D5327
:1035700010E17C530EE17B530CE17A51170809E30B
:10358000815307E1805305E17F5303E17E513B08FE
:103590000FE27D6B7C6B7B6B010E7A6F816B806BB6
:1035A0007F6B7E6B0301986F040E0001C66F0201F2
:1035B000822D06D0835304E1845302E1855313E046
:1035C000825306E1835304E1845302E185530BE007
:1035D000856B846B836B826B010E0301986F050E04
:1035E0000001C66F02018D5307E18C5305E18B5337
:1035F00003E18A51450809E28D5307E18C5305E147
:103600008B5303E18A51EE0812E28D6B8C6B8B6B4E
:10361000A00E8A6F896B886B876BAA0E866F010E6E
:103620000301986F060E0001C66F20D00201895178
:103630008D5D1DE30BE188518C5D19E307E1875136
:103640008B5D15E303E186518A5D11E3896B886B1D
:10365000876BAA0E866F8D6B8C6B8B6BA00E8A6F3F
:10366000010E0301986F060E0001C66F0201895119
:103670008D5D1EE30BE188518C5D1AE307E18751F4
:103680008B5D16E303E186518A5D12E3896B886BDB
:10369000876BAA0E866F8D6B8C6B8B6BA00E8A6FFF
:1036A000010E0301986F070E0001C66F23D00201BF
:1036B000895307E1885305E1875303E186514608A2
:1036C00009E2895307E1885305E1875303E18651F5
:1036D000EF0811E2896B886B876BAA0E866F8D6B82
:1036E0008C6B8B6BA00E8A6F010E0301986F080E16
:1036F0000001C66F0201915307E1905305E18F531A
:1037000003E18E51EF080CE291530AE1905308E176
:103710008F51020812E2FF0A03E18E51E7080DE221
:10372000916B906B010E8F6F040E8E6F010E030173
:10373000986F090E0001C66F0201922D06D09353B7
:1037400004E1945302E1955313E0925306E193533D
:1037500004E1945302E195530BE0956B946B936BEA
:10376000926B010E0301986F0A0E0001C66F0201F1
:10377000995307E1985305E1975303E196513208B5
:103780000CE2996B986B976B0A0E966F010E030112
:10379000986F0B0E0001C66F02019A2D06D09B5345
:1037A00004E19C5302E19D5313E09A5306E19B53BD
:1037B00004E19C5302E19D530BE09D6B9C6B9B6B62
:1037C0009A6B010E0301986F0C0E0001C66F020187
:1037D000A15307E1A05305E19F5303E19E5159080E
:1037E00009E2A15307E1A05305E19F5303E19E5174
:1037F000EF080CE2A16BA06B9F6BB40E9E6F010EE5
:103800000301986F0D0E0001C66F0201A55307E179
:10381000A45305E1A35303E1A251EF080CE2A55321
:103820000AE1A45308E1A351020812E2FF0A03E1EE
:10383000A251E7080DE2A56BA46B010EA36F040E65
:10384000A26F010E0301986F0E0E0001C66F0201F8
:10385000A95307E1A85305E1A75303E1A651310895
:103860000CE2A96BA86BA76B2D0EA66F010E0301CE
:10387000986F0F0E0001C66F0201AD51A95D20E3E4
:103880000BE1AC51A85D1CE307E1AB51A75D18E368
:1038900003E1A651AA5D14E20A0EA625AA6F000E46
:1038A000A721AB6F000EA821AC6F000EA921AD6F50
:1038B000010E0301986F100E0001C66F21D00201A6
:1038C000AD5307E1AC5305E1AB5303E1AA51310815
:1038D0000CE2AD530AE1AC5308E1AB51020811E22E
:1038E000FF0A03E1AA51E7080CE2AD6BAC6BAB6BCE
:1038F000370EAA6F010E0301986F110E0001C66FFB
:103900000201AE2D06D0AF5304E1B05302E1B15332
:1039100013E0AE5306E1AF5304E1B05302E1B153FB
:103920000BE0B16BB06BAF6BAE6B010E0301986F28
:10393000120E0001C66F0201B25306E1B35304E157
:10394000B45302E1B5530CE0B5530AE1B45308E1B6
:10395000B351020811E2FF0A03E1B251E7080CE299
:10396000B56BB46BB36B0A0EB26F010E0301986FA7
:10397000130E0001C66F0201B95307E1B85305E108
:10398000B75303E1B65117080BE2B96BB86BB76BCD
:10399000B66B010E0301986F140E0001C66F020191
:1039A000BD5307E1BC5305E1BB5303E1BA513B08EA
:1039B0000BE2BD6BBC6BBB6BBA6B010E0301986F66
:1039C000150E0001C66F0201C15307E1C05305E1A6
:1039D000BF5303E1BE510A080CE2C16BC06BBF6B61
:1039E000030EBE6F010E0301986F160E0001C66F25
:1039F0000201C55307E1C45305E1C35303E1C251BA
:103A00000A080CE2C56BC46BC36B030EC26F010ED8
:103A10000301986F170E0001C66F0201C9530AE136
:103A2000C85308E1C751020811E2FF0A03E1C65179
:103A3000E7080CE2C96BC86BC76B0A0EC66F010EB4
:103A40000301986F180E0001C66F0201CD530AE101
:103A5000CC5308E1CB51020811E2FF0A03E1CA513D
:103A6000E7080CE2CD6BCC6BCB6B0A0ECA6F010E74
:103A70000301986F190E0001C66F0201D15307E1CF
:103A8000D05305E1CF5303E1CE513C080CE2D16B9A
:103A9000D06BCF6B0A0ECE6F010E0301986F1A0E1A
:103AA0000001C66F0201D5530AE1D45308E1D35196
:103AB000020811E2FF0A03E1D251E7080CE2D56BDC
:103AC000D46BD36B0F0ED26F010E0301986F1B0ED8
:103AD0000001C66F0201D62D06D0D75304E1D8539A
:103AE00002E1D95313E0D65306E1D75304E1D8538A
:103AF00002E1D9530BE0D96BD86BD76BD66B010EB3
:103B00000301986F1C0E0001C66F0201DD5312E124
:103B1000DC5310E1DB51020805E2FF0A0BE1DA5148
:103B2000E70808E3DA5312E1DB5310E1DC530EE15E
:103B3000DD530CE1DD6BDC6BDB6B0F0EDA6F010E1E
:103B40000301986F1D0E0001C66F0201E1530AE1E7
:103B5000E05308E1DF51020811E2FF0A03E1DE5100
:103B6000E7080CE2E16BE06BDF6B0A0EDE6F010E23
:103B70000301986F1E0E0001C66F0201E55307E1B5
:103B8000E45305E1E35303E1E251450826E2E5533E
:103B900024E1E45322E1E351000805E2FF0A1DE1BC
:103BA000E25154081AE30A0EE65D006E000EE75972
:103BB000016E000EE859026E000EE959036EE55DD4
:103BC0001DE30BE10250E45D19E307E10150E35D01
:103BD00015E303E1E251005C11E2E56BE46BE36B9A
:103BE0006E0EE26FE96BE86BE76B960EE66F010E07
:103BF0000301986F1F0E0001C66F0201E95307E130
:103C0000E85305E1E75303E1E6514F080CE2E953BD
:103C10000AE1E85308E1E751000811E2FF0A03E175
:103C2000E6515E080CE2E96BE86BE76B960EE66F17
:103C3000010E0301986F200E0001C66F0201E951C9
:103C4000E55D1DE30BE1E851E45D19E307E1E751B0
:103C5000E35D15E303E1E251E65D11E2E56BE46B40
:103C6000E36B6E0EE26FE96BE86BE76B960EE66F47
:103C7000010E0301986F210E0001C66F0201ED5382
:103C800012E1EC5310E1EB51020805E2FF0A0BE1EF
:103C9000EA51E70808E3EA5312E1EB5310E1EC5371
:103CA0000EE1ED530CE1ED6BEC6BEB6B1E0EEA6F6E
:103CB000010E0301986F220E0001C66F0201EE2D66
:103CC00006D0EF5304E1F05302E1F15313E0EE5359
:103CD00006E1EF5304E1F05302E1F1530BE0F16B25
:103CE000F06BEF6BEE6B010E0301986F230E00017A
:103CF000C66F0201F55307E1F45305E1F35303E105
:103D0000F25117080CE2F56BF46BF36B060EF26FD1
:103D1000010E0301986F240E0001C66F0201F953D2
:103D200007E1F85305E1F75303E1F6513B080BE2D5
:103D3000F96BF86BF76BF66B010E0301986F260EAB
:103D40000001C66F0201FD5307E1FC5305E1FB537F
:103D500003E1FA5117080CE2FD6BFC6BFB6B160ECE
:103D6000FA6F010E0301986F270E0001C66F020162
:103D7000030101530CE100530AE10201FF53D8B4DF
:103D800002D0030104D0FE513B080DE20301016B98
:103D9000006B0201FF6BFE6B010E0301986F280E92
:103DA0000001C66F02010301056B046B0369026920
:103DB000062D06D0075304E1085302E1095312E02F
:103DC000065306E1075304E1085302E109530AE0F0
:103DD000096B086B076B066B010E986F290E0001CB
:103DE000C66F03010D5307E10C5305E10B5303E1CB
:103DF0000A5145080CE20D530AE10C5308E10B513E
:103E0000020811E2FF0A03E10A51E7080CE20D6B18
:103E10000C6B010E0B6FE00E0A6F010E986F2A0EED
:103E20000001C66F03010E2D06D00F5304E110539D
:103E300002E1115312E00E5306E10F5304E1105357
:103E400002E111530AE0116B106B0F6B0E6B010E48
:103E5000986F2B0E0001C66F030115530AE114532E
:103E600008E11351020810E2FF0A03E11251E708CA
:103E70000BE2156B146B136B3C0E126F010E986FF7
:103E80002C0E0001C66F030119530AE1185308E113
:103E9000175102080FE2FF0A03E11651E7080AE290
:103EA000196B186B176B010E166F986F2D0E0001B2
:103EB000C66F03011A2D06D01B5304E11C5302E107
:103EC0001D5312E01A5306E11B5304E11C5302E197
:103ED0001D530AE01D6B1C6B1B6B1A6B010E986F58
:103EE0002E0E0001C66F030121530DE12051000881
:103EF00016E2FF0A08E11F51850811E2FF0A03E1FB
:103F00001E519F080CE2216B206B300E1F6F390E83
:103F10001E6F010E986F2F0E0001C66F030125530F
:103F20000DE12451000816E2FF0A08E1235185083B
:103F300011E2FF0A03E122519F080CE2256B246B7A
:103F4000300E236F390E226F010E986F300E000174
:103F5000C66F0301895307E1885305E1875303E1E5
:103F600086510F080BE2896B886B876B020E866F98
:103F7000010E986F310E0001C66F030100016851F8
:103F8000030804E34BE16751E70848E268518708FA
:103F900005E2FF0A43E16751B80840E3805303E1BB
:103FA0007F5163083BE28051020805E2FF0A36E1D7
:103FB0007F51E80833E3875302E188532FE08853A9
:103FC0002DE1875101082AE34BC19CF34AC19BF3C1
:103FD00049C19AF348C199F30A0E0301A06FD70EA5
:103FE0009F6F230E9E6F770E9D6F0001C3EC18F03C
:103FF00015E29A0E03019C6F990E9B6F190E9A6F32
:104000007D0E996F4BC1A0F34AC19FF349C19EF346
:1040100048C19DF30001C3EC18F019E30301816B63
:10402000806B120E7F6F700E7E6F7D6B7C6B010E4E
:104030007B6FAD0E7A6F856B846B836B010E826F25
:10404000320E0001C66F010E0301986F0001835309
:1040500003E18453D8B4A7D08453D8A4A4D0835107
:104060000108D8A0A0D0855303E18653D8B49BD0D3
:104070008653D8A498D085510108D8A094D037C1D0
:104080009CF336C19BF335C19AF334C199F30A0E00
:104090000301A06FD70E9F6F230E9E6F780E9D6F4A
:1040A0000001C3EC18F0D8B07ED02FC19CF32EC114
:1040B0009BF32DC19AF32CC199F30A0E0301A06F53
:1040C000D70E9F6F230E9E6F780E9D6F0001C3EC7D
:1040D00018F069E233C19CF332C19BF331C19AF30A
:1040E00030C199F30A0E0301A06FD70E9F6F230E04
:1040F0009E6F780E9D6F0001C3EC18F054E247C12B
:104100009CF346C19BF345C19AF344C199F36F0EEA
:104110000301A06F120E9F6F030E9E6F750E9D6FB1
:104120000001C3EC18F03FE23BC19CF33AC19BF3A2
:1041300039C19AF338C199F30A0E0301A06FD70E63
:104140009F6F230E9E6F780E9D6F0001C3EC18F0D9
:104150002AE23FC19CF33EC19BF33DC19AF33CC1AF
:1041600099F30A0E0301A06FD70E9F6F230E9E6F67
:10417000780E9D6F0001C3EC18F015E243C19CF36B
:1041800042C19BF341C19AF340C199F30A0E030166
:10419000A06FD70E9F6F230E9E6F780E9D6F00014C
:1041A000C3EC18F03AE3010E0301986F516B506BAA
:1041B0004F6BE70E4E6F556B546B040E536FC80E6A
:1041C000526F596B586B576B010E566F5D6B5C6B82
:1041D0005B6BE90E5A6F616B606B5F6B5E6F656B5B
:1041E000646B636B626F696B686B676B666F6D6B3B
:1041F0006C6B6B6BE20E6A6F716B706B6F6BE90EC1
:104200006E6F756B746B736B726F796B786B776BAA
:10421000010E766F330E0001C66F03018A2D06D0A2
:104220008B5304E18C5302E18D5312E08A5306E173
:104230008B5304E18C5302E18D530AE08D6B8C6B40
:104240008B6B8A6B010E986F340E0001C66F0301F1
:10425000982D05D0010E0001AF6FC26F0301982D9C
:1042600036D0976B966B975332E196514A082FE3FD
:104270009635996F97359A6F99379A37FC0E99173B
:104280009635026E9735036E02360336FC0E021623
:1042900002506A0FE96E020E0320EA6EEFCFA5F31B
:1042A000ECCFA6F3ECCFA7F3ECCFA8F3A26BA16BF6
:1042B000FE0EA06F9F6B9AC3A4F399C3A3F30001F2
:1042C00083EC0DF00301962BD8B4972BCCD70001CB
:1042D000FBEF31F0C69E9E96ADC2C9FF020EC6BE70
:1042E00005D09EA6FED7000EC5BC010E016E1200C1
:1042F000C69CC586C5B6FED700B0C59A00A0C58AC3
:10430000C588C5B8FED7C9CF01F09CEF21F0C580A4
:10431000C5B0FED7D00E0201AD6F0001DBDFAAC22F
:10432000ADF2D8DFC582C5B2FED7D10E0201AD6FA6
:104330000001D0DF006ADCD701C0ABF2C584C5B490
:10434000FED70201ABC201F000011200ABC2ACF219
:104350000201AC39006E0F0E001600500A0DF3CFAB
:10436000ABF2AC39006EF00E00160050003A0F0EA2
:1043700000160050AB27ABC201F000011200040E82
:104380000201AA6F0001C3DF01C0A6F201C0ABF2B7
:10439000DDDF01C09FF2050E0201AA6F0001B7DF49
:1043A00001C0A6F201C0ABF2D1DF01C0A0F2060E3F
:1043B0000201AA6F0001ABDF01C0A6F201C0ABF29F
:1043C000C5DF01C0A1F2030E0201AA6F00019FDF49
:1043D00001C0A6F201C0ABF2B9DF01C0A2F2020E29
:1043E0000201AA6F000193DF01C0A6F201C0ABF287
:1043F000ADDF01C0A3F2010E0201AA6F000187DF49
:1044000001C0A6F201C0ABF2A1DF01C0A4F202011B
:10441000AA6B00017CDF01C0A6F201C0ABF296DFFF
:1044200001C0A5F2040E02019D25E96E000E9E2139
:10443000EA6E010EA05DEF6E070E9D25E96E000E7F
:104440009E21EA6E010EA25DEF6E030E9D25E96EC0
:10445000000E9E21EA6E9FC2EFFF050E9D25E96EBC
:10446000000E9E21EA6EA96B640EA125EF6E000E70
:10447000A921EC6E020E9D25E96E000E9E21EA6ECA
:10448000A3C2EFFF010E9D25E96E000E9E21EA6E8C
:10449000A4C2EFFF9DC2E9FF9EC2EAFFA5C2EFFFE3
:1044A000000112000201AA6B000131DF01C06AF2B3
:1044B00002016A9FC580C5B0FED7D00EAD6F000166
:1044C00009DF0201AD6B000105DF6AC2ADF202DF58
:1044D000C582C5B2FED7D00E0201AD6F0001FADE73
:1044E000070E0201AD6F0001F5DE800E0201AD6F17
:1044F0000001F0DEC584C5B4FED746EF23F002010B
:10450000DC51016ADB5D03E2DBC200F00CD0006A23
:10451000080EDD6FDB370036DC51005CD8B0006E72
:104520000136DD2FF7D700011200ACC2DBF20A0E14
:104530000201DC6F0001E3DF01C0ADF20201AD5109
:104540000A0DF350AC5DAE6FAD39006EF00E001683
:104550000050AE11016E00011200C580C5B0FED73B
:10456000D00E0201AD6F0001B5DE0201AD6B00019E
:10457000B1DE0201AD6B0001ADDEABC2ACF2D5DF46
:1045800001C0ACF201C0ADF2A5DEAAC2ACF2CDDF33
:1045900001C0ACF201C0ADF29DDEA9C2ACF2C5DF34
:1045A00001C0ACF201C0ADF295DEA6C2ACF2BDDF37
:1045B00001C0ACF201C0ADF28DDEA7C2ACF2B5DF36
:1045C00001C0ACF201C0ADF285DEA8C2ACF2ADDF35
:1045D00001C0ACF201C0ADF27DDEC584C5B4FED72A
:1045E00034EF23F0030E02019D25E96E000E9E219B
:1045F000EA6EEFCFA6F2040E9D25E96E000E9E2115
:10460000EA6E010EEF24A06F050E9D25E96E000EE7
:104610009E21EA6EECCFA2F2ED52EFCFA1F2640E32
:10462000A15F000EA25B070E9D25E96E000E9E2184
:10463000EA6E010EEF24A36F020E9D25E96E000EB7
:104640009E21EA6EEFCFAAF2010E9D25E96E000EC3
:104650009E21EA6EEFCFABF2A0C2A7F2A1C2A8F2F0
:10466000A3C2A9F2000179D7010E0201EA6F00018D
:10467000C2EC0BF0120002019E6B2D0E9D6F00012B
:104680007EDE2D503B0808E22D6A0CD702019E6B9E
:104690002D0E9D6F0001A6DF01EF32F01CC0EAFF76
:1046A0001BC0E9FF0201F0C2EFFFE92AD8B4EA2AF1
:1046B000EF6A1B2AD8B41C2A000112000900F55227
:1046C0000CE0F6CFD9F2F7CFDAF2F5CFF0F2E6DF71
:1046D000D9C2F6FFDAC2F7FFF1D712000201F1B139
:1046E00002D08A9201D08A829392F1B302D08C9E3A
:1046F00001D08C8E959EF1B502D08C9C01D08C8C13
:10470000959CF1B702D08C9A01D08C8A959A0000C2
:1047100093948A84020E006E002EFED700009394BC
:104720008A940001120093968A964F0E006E002E16
:10473000FED700D00201EE5303E093968A8602D0A2
:1047400093968A96000093948A94EF39F06F0F0E37
:10475000F017F0C2F1F20001C1DF0201EF510F0BBF
:10476000F06FF16F0001BADF120093968A9693946E
:104770008A940F0E0201EA6F0001C2EC0BF00201F5
:10478000D96BD95102080DE3030EF16F0001A6DFCA
:10479000050E0201EA6F0001C2EC0BF00201D92BF9
:1047A000F0D7020EF16F000199DF0201D96BD951E8
:1047B000030814E3036AD95100017BEC00F0020105
:1047C000DA6FEE6BEF6F0001AEDF050E0201EA6FEC
:1047D0000001C2EC0BF00201D92BE9D70001120055
:1047E0000201EB2D01D003D0400EEC6F01D0EC6B39
:1047F000010EEA5DEC27EC518009ED6FEE6BEF6F77
:10480000000191DF12000201E9510C0A000105E0EC
:10481000060A10E0020A16E01CD00201EE6B010E3F
:10482000EF6F000180DF020E0201EA6F0001C2ECAF
:104830000BF016D0010E0201EA6F020EEB6F0001C1
:10484000CFDF0ED00201EE6B100EEF6F00016BDFB9
:1048500007D0010E0201EE6FE9C2EFF2000163DF43
:1048600012000201E451010A000103E0030A08E01A
:104870000FD0010E0201EA6FEB6F0001B1DF08D02B
:10488000010E0201EA6F020EEB6F0001A9DF00D0FA
:104890000201E76BE7510F0819E3E6C203F0E5C236
:1048A000E9FF03C0EAFFEF5211E0E6C203F0E5C200
:1048B000E9FF03C0EAFFEFCFE9F20001A4DF020144
:1048C000E751E72BE52BD8B4E62BE4D7E7510F08E7
:1048D00007E3200EE96F000196DF0201E72BF6D710
:1048E00000011200D1C2D2F2D8900201D13302E20B
:1048F000899401D089849294D890D13302E2899628
:1049000001D089869296D890D13302E2899A01D05B
:10491000898A929AD251070807E3000E016EC250AD
:10492000830B0110C26E06D0040E016EC250830BC1
:104930000110C26E010EEA6F0001C2EC0BF005EF30
:1049400025F0040E0201D25F0AE3020EEA6ED20ED7
:10495000E96EEF5004E001D00000EF2EFDD700011A
:104960001AEF25F0D8B204D0020EEA6EFB0EE96E03
:10497000006A016A026A036A0201FB6BFC6BFD6B51
:10498000FE6BFA51F911F811F7112CE0200EFF6FB0
:10499000D890F337F437F537F637FB37FC37FD3768
:1049A000FE37FA51FE5D08E1F951FD5D05E1F85170
:1049B000FC5D02E1F751FB5D0FE3F751FB5FF8513E
:1049C000D8A0F83DFC5FF951D8A0F93DFD5FFA5140
:1049D000D8A0FA3DFE5FD880003601360236033695
:1049E000FF2FD6D7FBC2EFFFFCC2ECFFFDC2ECFFEE
:1049F000FEC2ECFF000112000201CF6BCE6BCD6B4B
:104A0000CC6BCBC2D1F200016DD70201D06BD0517B
:104A1000270815E3C282C2B2FED7C350CC27C450C8
:104A2000CD23000ECE23CF23020ED16FDB0ED26F2B
:104A3000000187D70201D12FF9D7D02BE8D7D89220
:104A4000CFC2F6F2CEC2F5F2CDC2F4F2CCC2F3F28E
:104A5000FA6BF96BF86B280EF76F000183DF03C068
:104A6000CFF202C0CEF201C0CDF200C0CCF2020102
:104A7000CCC201F0CDC202F00001120002019D5132
:104A8000D8B471D0006EA151D8B46DD0002604E323
:104A9000810E002668E204D07F0E005E64E363E0CE
:104AA0009EC2A5F2A251A51B9E8FA28FA051A40366
:104AB000F4CFA7F29F51A303F4CF03F0F3CFA6F2F4
:104AC000A403F350A727F450A623000E0322A051FD
:104AD000A303F350A727F450A623000E026A032273
:104AE00002229E51A403F350A627F4500322000E85
:104AF00002229E51A303F3500326F4500222000E1B
:104B0000016A0122A051A203F350A627F450032208
:104B1000000E022201229F51A203F3500326F450FB
:104B20000222000E01229E51A203F3500226F450ED
:104B30000122002A01BE05D0A6370336023601360F
:104B40000006000EA6AF0AD0032A0222012201505D
:104B500005E1025003E1035001E1002AA5BF018EE7
:104B6000A5AF019E04D0006A016A026A036A0001CF
:104B700012008E0E006E02019D51005E9EC202F078
:104B80009FC201F0028E005209E0D890025202E169
:104B9000015204E002320132002EF7D79EAF05D059
:104BA000011E021E012AD8B4022A00011200016A65
:104BB000026A006A036A0201AF5102E1AE5118E0D5
:104BC000100EB06FD890AC37AD3700360336AF510A
:104BD000035C02E1AE51005C07E3AE51005ED8A079
:104BE0000306AF51035ED88001360236B02FEAD7F4
:104BF00000011200070E0201CB6F0001FDDE02C0B2
:104C0000D2F201C0D1F25AEC10F003C081F202C01E
:104C100080F201C07FF200C07EF203C0A0F202C0A9
:104C20009FF201C09EF200C09DF23BC1A4F23AC1C6
:104C3000A3F239C1A2F238C1A1F220DF03C081F290
:104C400002C080F201C07FF200C07EF203C0A0F279
:104C500002C09FF201C09EF200C09DF253C1A4F2B7
:104C600052C1A3F251C1A2F250C1A1F207DF03C0A9
:104C7000A0F202C09FF201C09EF200C09DF279DF57
:104C800002C03EF001C03DF0060E0201CB6F0001F4
:104C9000B3DE02C0D2F201C0D1F25AEC10F003C070
:104CA00081F202C080F201C07FF200C07EF203C038
:104CB000A0F202C09FF201C09EF200C09DF23FC16F
:104CC000A4F23EC1A3F23DC1A2F23CC1A1F2D6DEE4
:104CD00003C081F202C080F201C07FF200C07EF208
:104CE00003C0A0F202C09FF201C09EF200C09DF27C
:104CF00053C1A4F252C1A3F251C1A2F250C1A1F218
:104D0000BDDE03C0A0F202C09FF201C09EF200C04F
:104D10009DF22FDF02C040F001C03FF0040E0201FF
:104D2000CB6F000169DE02C0D2F201C0D1F25AECB1
:104D300010F003C081F202C080F201C07FF200C017
:104D40007EF203C0A0F202C09FF201C09EF200C03A
:104D50009DF243C1A4F242C1A3F241C1A2F240C1FB
:104D6000A1F28CDE03C081F202C080F201C07FF2AA
:104D700000C07EF203C0A0F202C09FF201C09EF20A
:104D800000C09DF253C1A4F252C1A3F251C1A2F2DC
:104D900050C1A1F273DE03C0A0F202C09FF201C0B5
:104DA0009EF200C09DF2E5DE02C042F001C041F07B
:104DB000D02D4AD0D15348E1895323E03E50010120
:104DC000015D04E31AE13D50005D17E20001FF516F
:104DD0003E5C11E303E1FE513D5C0DE3FF51010830
:104DE0000AE3D8B402D0010108D0FE51F308D8A0DC
:104DF00002D0010102D0000E02D0010E0001896F25
:104E000022D03E500101035D04E31AE13D50025DF2
:104E100017E20001FF513E5C11E303E1FE513D5CEE
:104E20000DE3FF5101080AE3D8B402D0010108D014
:104E3000FE51F308D8A002D0010102D0000E02D02A
:104E4000010E0001896FA8D18953D8B467D03E50B4
:104E50000101015D04E31AE13D50005D17E200012C
:104E6000FF513E5C11E303E1FE513D5C0DE3FF5158
:104E700001080AE3D8B402D0010108D0FE51F308BA
:104E8000D8A002D0010102D0000E02D0010E000114
:104E9000916F40500101015D04E31AE13F50005D54
:104EA00017E20001FF51405C11E303E1FE513F5C5A
:104EB0000DE3FF5101080AE3D8B402D0010108D084
:104EC000FE51F308D8A002D0010102D0000E02D09A
:104ED000010E0001926F42500101015D04E31AE1ED
:104EE0004150005D17E20001FF51425C11E303E114
:104EF000FE51415C0DE3FF5101080AE3D8B402D032
:104F0000010108D0FE51F308D8A002D0010102D05F
:104F1000000E02D0010E0001936F66D03E500101D9
:104F2000035D04E31AE13D50025D17E20001FF5109
:104F30003E5C11E303E1FE513D5C0DE3FF510108CE
:104F40000AE3D8B402D0010108D0FE51F308D8A07A
:104F500002D0010102D0000E02D0010E0001916FBB
:104F600040500101035D04E31AE13F50025D17E286
:104F70000001FF51405C11E303E1FE513F5C0DE392
:104F8000FF5101080AE3D8B402D0010108D0FE5154
:104F9000F308D8A002D0010102D0000E02D0010E09
:104FA0000001926F42500101035D04E31AE1415098
:104FB000025D17E20001FF51425C11E303E1FE5183
:104FC000415C0DE3FF5101080AE3D8B402D00101AE
:104FD00008D0FE51F308D8A002D0010102D0000E83
:104FE00002D0010E0001936F915306E1925304E148
:104FF000935302E1000E01D0010E896F892D01D07B
:10500000CAD0D22DC6D0D353D8A4C3D041503D244A
:1050100002017E6F42503E207F6F3F507E274050FE
:105020007F237FC2ADF27EC2ACF2AF6B030EAE6FD8
:105030000001BDDD02C06FF201C06EF2942D21D0DF
:105040006FC2DCF26EC2DBF209C1DEF208C1DDF232
:1050500024EC11F002C07FF201C07EF202C0ADF27A
:1050600001C0ACF20201AF6B640EAE6F00019FDDB8
:10507000030E0201015C706F000E0258716F20D0A8
:1050800000016FC2DCF26EC2DBF209C1DEF208C1C0
:10509000DDF224EC11F002C07FF201C07EF202C00A
:1050A000ADF201C0ACF20201AF6B640EAE6F000155
:1050B0007EDD030E02010124706F000E0220716F6D
:1050C0003EC073F23DC072F240C075F23FC074F250
:1050D00042C077F241C076F27451725D7E6F7551B5
:1050E00073597F6F036E7E517FAF08D0000ED8805A
:1050F0007E55006E000E7F55036E0050786F03C022
:1051000079F27451765D7E6F755177597F6F036EBA
:105110007E517FAF08D0000ED8807E55006E000E05
:105120007F55036E00507A6F03C07BF27251765D3B
:105130007E6F735177597F6F036E7E517FAF08D0BA
:10514000000ED8807E55006E000E7F55036E005015
:105150007C6F03C07DF27151795D04E311E17851F8
:10516000705D0EE371517B5D04E30AE17A51705D7D
:1051700007E371517D5D0AE303E17C51705D06E256
:10518000010E0001896F946F03D002010001946B3E
:1051900001D0946B01D0946B89C001F090EF30F096
:1051A00002016E2D08D00E5306E1010E116F71C180
:1051B00087F170C186F10101865302E187530EE049
:1051C0000001CE530AE1CB5308E1CD5306E10101C2
:1051D000876B866B0201116B000113D00201112D48
:1051E0000FD00001CE2D02D0010EBD6FCB2D02D00D
:1051F000010EB56FCD2D02D0010EBC6F0201116BF7
:105200000001120002016E2D08D001018D6B030E0A
:105210008C6F010E0201176F07D06E51030804E175
:1052200001018D6B8C6B020101018C5302E18D53E6
:1052300001E01AD00201172D16D0176B0001CA2DFC
:1052400002D0010EB76FC82D02D0010EB46FC72D6A
:1052500002D0010EB36FCF2D02D0010EBE6FCC2D48
:1052600002D0010EBB6F010100011200A9C1D2F2F0
:10527000A8C1D1F25AEC10F0800E0201D46F1F0EBB
:10528000D36F750ED26F910ED16F03C0D8F202C0EA
:10529000D7F201C0D6F200C0D5F2000175EC10F0D3
:1052A00003C056F002C055F001C054F000C053F0E6
:1052B00056C09CF355C09BF354C09AF353C099F366
:1052C0000301A06B9F6B080E9E6F830E9D6F000104
:1052D000C3EC18F004E3566A556A546A536A010E27
:1052E0000201CB6F0001FCEC24F002C0D2F201C03D
:1052F000D1F25AEC10F003C071F202C070F201C09A
:105300006FF200C06EF203C0A0F202C09FF201C0B3
:105310009EF200C09DF22FC1A4F22EC1A3F22DC1B6
:10532000A2F22CC1A1F23EEC25F003C071F202C042
:1053300070F201C06FF200C06EF203C0A0F202C0B2
:105340009FF201C09EF200C09DF253C1A4F252C16F
:10535000A3F251C1A2F250C1A1F23EEC25F003C06C
:10536000A0F202C09FF201C09EF200C09DF201DCDB
:1053700002C038F001C037F0020E0201CB6F00010D
:10538000FCEC24F002C0D2F201C0D1F25AEC10F0D1
:1053900003C071F202C070F201C06FF200C06EF281
:1053A00003C0A0F202C09FF201C09EF200C09DF2B5
:1053B00033C1A4F232C1A3F231C1A2F230C1A1F2D1
:1053C0003EEC25F003C071F202C070F201C06FF232
:1053D00000C06EF203C0A0F202C09FF201C09EF2B4
:1053E00000C09DF253C1A4F252C1A3F251C1A2F276
:1053F00050C1A1F23EEC25F003C0A0F202C09FF222
:1054000001C09EF200C09DF2B9EC25F002C03AF056
:1054100001C039F0050E0201CB6F0001FCEC24F055
:1054200002C0D2F201C0D1F25AEC10F003C071F206
:1054300002C070F201C06FF200C06EF203C0A0F2B1
:1054400002C09FF201C09EF200C09DF237C1A4F2DB
:1054500036C1A3F235C1A2F234C1A1F23EEC25F06F
:1054600003C071F202C070F201C06FF200C06EF2B0
:1054700003C0A0F202C09FF201C09EF200C09DF2E4
:1054800053C1A4F252C1A3F251C1A2F250C1A1F280
:105490003EEC25F003C0A0F202C09FF201C09EF2D4
:1054A00000C09DF2B9EC25F002C03CF001C03BF019
:1054B000D42D0CD0D5530AE1385205E137503108CC
:1054C00002E3000E01D0010E8A6F13D038520FE1B3
:1054D000375031080CE33A520AE13950310807E3FA
:1054E0003C5205E13B50310802E3000E01D0010EB1
:1054F0008A6F8A2D03D0010E8F6F906B02010B53C0
:1055000013E10C5311E11B530FE100018A2D01D06F
:1055100011D09753D8B402D0020106D08F2D01D0FC
:1055200002D0020101D006D000019753D8A475D152
:1055300083A473D156C09CF355C09BF354C09AF317
:1055400053C099F31FC1A0F31EC19FF31DC19EF369
:105550001CC19DF3C3EC18F011E3C0530FE1972D6C
:1055600002D083B402D0975306E102010E5304E146
:10557000010E0001CD6F020103D00001CD6B0201CD
:1055800023C19CF322C19BF321C19AF320C199F35B
:1055900056C0A0F355C09FF354C09EF353C09DF373
:1055A0000001C3EC18F01EE3C0531CE123C19CF3BF
:1055B00022C19BF321C19AF320C199F30301A06B8F
:1055C0009F6B480E9E6F850E9D6F0001C3EC18F017
:1055D00009E3972D02D083B402D0975302E1010E64
:1055E000CC6F01D0CC6BD42D8AD0D553D8A487D022
:1055F00001010751385C36E303E10651375C32E3C1
:105600003850055D2FE303E13750045D2BE31FC1E4
:105610009CF31EC19BF31DC19AF31CC199F356C0A4
:10562000A0F355C09FF354C09EF353C09DF30001F7
:10563000C3EC18F0D8B002D0010114D056C09CF3CE
:1056400055C09BF354C09AF353C099F323C1A0F300
:1056500022C19FF321C19EF320C19DF3C3EC18F03A
:1056600003E20101000E01D0010E00018D6F010166
:105670000551385C20E303E10451375C1CE3000171
:10568000C053D8B402D0010116D001010551010860
:1056900012E303E10451F3080EE30001972D02D059
:1056A00083A402D0000E01D0010E010802E0010E19
:1056B000CF6F03D001010001CF6B38500101075DAE
:1056C00019E303E13750065D15E30001C053D8B478
:1056D00002D001010FD0972D02D083B402D097538E
:1056E00006E102010E5304E1010E0001CE6F02013A
:1056F00004D001010001CE6B020160D00001010164
:105700000551385C04E311E10451375C0EE20551A8
:105710003A5C04E30AE10451395C07E205513C5C60
:105720001FE303E104513B5C1BE30001C053D8B409
:1057300002D0010115D001010551010811E303E177
:105740000451F3080DE30001972D02D083A402D089
:10575000000E01D0010E010802E0010ECF6F04D04F
:105760000001C05301E1CF6B38500101075D04E334
:1057700011E13750065D0EE23A50075D04E30AE19D
:105780003950065D07E23C50075D13E303E13B50EF
:10579000065D0FE30001C053D8B402D0010109D067
:1057A000972D02D083B402D0975302E1010ECE6F41
:1057B00004D00001C05301E1CE6B02010001BD53D2
:1057C0000FE1BE530DE1BC530BE1BB5309E18A2D40
:1057D00007D0BC5305E1BB5303E1010E8D6F01D02F
:1057E0008D6BBC2D01D002D0CD2D05D0BD2D03D0A9
:1057F0008F2D01D00CD0BD2D01D002D0CE2D05D0E3
:10580000BC2D03D08F2D01D002D0C12D06D0010EAA
:10581000C16FBD6BBC6BCD6BCE6B975302E183B494
:1058200002D0000E01D0010E010810E1BD5303E1CA
:10583000CE2D01D004D0BC5309E1CD2D07D00201FB
:10584000115305E1010E6E6F0001AADC0201000197
:10585000CC2D02D0BB2D05D0CF2D0AD0BE2D01D02E
:1058600007D00201175305E1010E6E6F0001CADC7B
:10587000020100018AC001F094EF30F002016E2DA8
:1058800001D00BD00001C92D0FD0B8530DE102019A
:105890001653D8B402D0000107D0010E166F75C19F
:1058A0008BF174C18AF1000101018A5302E18B532B
:1058B0000AE00001C95306E101018B6B8A6B02010A
:1058C000166B00010CD00201162D0AD0166B0001D8
:1058D000C92D05D00201166B010E0001B86F02013F
:1058E00000011200030E0201CB6F0001FCEC24F05A
:1058F00002C06FF201C06EF202010250010820E303
:1059000003E16E51F3081CE3010E00018C6FA62D1C
:1059100015D08A2D13D002010C53D8B402D0000147
:105920000DD00B53D8B402D0000108D00F53D8B417
:1059300002D0000103D0010E0001C76F04D00201A4
:105940000001C76B8C6B0C0E0201CB6F0001FCECED
:1059500024F002C06FF201C06EF202010250010891
:105960000FE303E16E51F3080BE30C5308E10B5313
:1059700006E10F5304E1010E0001C86F020103D0DC
:105980000001C86B0201CB6B0001FCEC24F002C0EB
:105990006FF201C06EF20201025001080FE303E151
:1059A0006E51F3080BE30C5308E10B5306E10F5360
:1059B00004E1010E0001CA6F020103D00001CA6BAD
:1059C00002010001C82D02D0B45308E0C72D02D057
:1059D000B35304E0CA2D09D0B75307E102011753AE
:1059E00005E1010E6E6F00010DDC02010E0ECB6FA2
:1059F0000001FCEC24F002C06FF201C06EF2020163
:105A00000250010808E303E16E51F30804E3010EBC
:105A10000001B66F02010B0ECB6F0001FCEC24F00D
:105A200002C06FF201C06EF202010250010810E3E1
:105A300003E16E51F3080CE3010E0001C96F02018E
:105A4000165305E1010E6E6F000118DF020103D04D
:105A50000001C96B02010001B3530AE1B45308E12C
:105A6000B65306E1B85304E1B75302E1000E01D08A
:105A7000010EBF6FBFC001F09DEF30F0800ED8A2C5
:105A800002D002017D1B0201826B836B79C281F21D
:105A90007D51811B7851D8B4DFD0806F006E7C516E
:105AA000D8B4E3D0805FD8B483D03EE37DC286F221
:105AB000868F7EC285F27FC284F2836BD890863354
:105AC000853384338333802FF8D781AF03D082812D
:105AD000E0D0829180918289020EEA6E7B0EE96E9F
